{
  "_format": "hh-sol-artifact-1",
  "contractName": "DaoRegistractionFactory",
  "sourceName": "contracts/DaoRegistrationFactory.sol",
  "abi": [
    {
      "inputs": [],
      "stateMutability": "nonpayable",
      "type": "constructor"
    },
    {
      "inputs": [
        {
          "internalType": "string",
          "name": "_organizationToken",
          "type": "string"
        },
        {
          "internalType": "string",
          "name": "_tokenSymbol",
          "type": "string"
        },
        {
          "internalType": "string",
          "name": "_orgName",
          "type": "string"
        }
      ],
      "name": "Registration",
      "outputs": [],
      "stateMutability": "nonpayable",
      "type": "function"
    },
    {
      "inputs": [],
      "name": "getAllDeployedContract",
      "outputs": [
        {
          "internalType": "address[]",
          "name": "",
          "type": "address[]"
        }
      ],
      "stateMutability": "view",
      "type": "function"
    },
    {
      "inputs": [
        {
          "internalType": "address",
          "name": "_contractAddress",
          "type": "address"
        }
      ],
      "name": "getNameOfOrganizations",
      "outputs": [
        {
          "internalType": "string",
          "name": "",
          "type": "string"
        }
      ],
      "stateMutability": "view",
      "type": "function"
    }
  ],
  "bytecode": "0x608060405234801561001057600080fd5b5061398d806100206000396000f3fe60806040523480156200001157600080fd5b5060043610620000465760003560e01c8063c7ed78db146200004b578063d6c83f4f146200006b578063ea054fb3146200008d575b600080fd5b620000696004803603810190620000639190620004a9565b620000c3565b005b62000075620001bc565b60405162000084919062000664565b60405180910390f35b620000ab6004803603810190620000a59190620006b9565b6200024c565b604051620000ba919062000774565b60405180910390f35b6000838333604051620000d69062000325565b620000e493929190620007a9565b604051809103906000f08015801562000101573d6000803e3d6000fd5b5090506000819080600181540180825580915050600190039060005260206000200160009091909190916101000a81548173ffffffffffffffffffffffffffffffffffffffff021916908373ffffffffffffffffffffffffffffffffffffffff16021790555081600160008373ffffffffffffffffffffffffffffffffffffffff1673ffffffffffffffffffffffffffffffffffffffff1681526020019081526020016000209081620001b5919062000a34565b5050505050565b606060008054806020026020016040519081016040528092919081815260200182805480156200024257602002820191906000526020600020905b8160009054906101000a900473ffffffffffffffffffffffffffffffffffffffff1673ffffffffffffffffffffffffffffffffffffffff1681526020019060010190808311620001f7575b5050505050905090565b6060600160008373ffffffffffffffffffffffffffffffffffffffff1673ffffffffffffffffffffffffffffffffffffffff16815260200190815260200160002080546200029a9062000823565b80601f0160208091040260200160405190810160405280929190818152602001828054620002c89062000823565b8015620003195780601f10620002ed5761010080835404028352916020019162000319565b820191906000526020600020905b815481529060010190602001808311620002fb57829003601f168201915b50505050509050919050565b612e3c8062000b1c83390190565b6000604051905090565b600080fd5b600080fd5b600080fd5b600080fd5b6000601f19601f8301169050919050565b7f4e487b7100000000000000000000000000000000000000000000000000000000600052604160045260246000fd5b6200039c8262000351565b810181811067ffffffffffffffff82111715620003be57620003bd62000362565b5b80604052505050565b6000620003d362000333565b9050620003e1828262000391565b919050565b600067ffffffffffffffff82111562000404576200040362000362565b5b6200040f8262000351565b9050602081019050919050565b82818337600083830152505050565b6000620004426200043c84620003e6565b620003c7565b9050828152602081018484840111156200046157620004606200034c565b5b6200046e8482856200041c565b509392505050565b600082601f8301126200048e576200048d62000347565b5b8135620004a08482602086016200042b565b91505092915050565b600080600060608486031215620004c557620004c46200033d565b5b600084013567ffffffffffffffff811115620004e657620004e562000342565b5b620004f48682870162000476565b935050602084013567ffffffffffffffff81111562000518576200051762000342565b5b620005268682870162000476565b925050604084013567ffffffffffffffff8111156200054a576200054962000342565b5b620005588682870162000476565b9150509250925092565b600081519050919050565b600082825260208201905092915050565b6000819050602082019050919050565b600073ffffffffffffffffffffffffffffffffffffffff82169050919050565b6000620005bb826200058e565b9050919050565b620005cd81620005ae565b82525050565b6000620005e18383620005c2565b60208301905092915050565b6000602082019050919050565b6000620006078262000562565b6200061381856200056d565b935062000620836200057e565b8060005b83811015620006575781516200063b8882620005d3565b97506200064883620005ed565b92505060018101905062000624565b5085935050505092915050565b60006020820190508181036000830152620006808184620005fa565b905092915050565b6200069381620005ae565b81146200069f57600080fd5b50565b600081359050620006b38162000688565b92915050565b600060208284031215620006d257620006d16200033d565b5b6000620006e284828501620006a2565b91505092915050565b600081519050919050565b600082825260208201905092915050565b60005b83811015620007275780820151818401526020810190506200070a565b60008484015250505050565b60006200074082620006eb565b6200074c8185620006f6565b93506200075e81856020860162000707565b620007698162000351565b840191505092915050565b6000602082019050818103600083015262000790818462000733565b905092915050565b620007a381620005ae565b82525050565b60006060820190508181036000830152620007c5818662000733565b90508181036020830152620007db818562000733565b9050620007ec604083018462000798565b949350505050565b7f4e487b7100000000000000000000000000000000000000000000000000000000600052602260045260246000fd5b600060028204905060018216806200083c57607f821691505b602082108103620008525762000851620007f4565b5b50919050565b60008190508160005260206000209050919050565b60006020601f8301049050919050565b600082821b905092915050565b600060088302620008bc7fffffffffffffffffffffffffffffffffffffffffffffffffffffffffffffffff826200087d565b620008c886836200087d565b95508019841693508086168417925050509392505050565b6000819050919050565b6000819050919050565b6000620009156200090f6200090984620008e0565b620008ea565b620008e0565b9050919050565b6000819050919050565b6200093183620008f4565b6200094962000940826200091c565b8484546200088a565b825550505050565b600090565b6200096062000951565b6200096d81848462000926565b505050565b5b8181101562000995576200098960008262000956565b60018101905062000973565b5050565b601f821115620009e457620009ae8162000858565b620009b9846200086d565b81016020851015620009c9578190505b620009e1620009d8856200086d565b83018262000972565b50505b505050565b600082821c905092915050565b600062000a0960001984600802620009e9565b1980831691505092915050565b600062000a248383620009f6565b9150826002028217905092915050565b62000a3f82620006eb565b67ffffffffffffffff81111562000a5b5762000a5a62000362565b5b62000a67825462000823565b62000a7482828562000999565b600060209050601f83116001811462000aac576000841562000a97578287015190505b62000aa3858262000a16565b86555062000b13565b601f19841662000abc8662000858565b60005b8281101562000ae65784890151825560018201915060208501945060208101905062000abf565b8683101562000b06578489015162000b02601f891682620009f6565b8355505b6001600288020188555050505b50505050505056fe60a06040523480156200001157600080fd5b5060405162002e3c38038062002e3c8339818101604052810190620000379190620002ea565b8073ffffffffffffffffffffffffffffffffffffffff1660808173ffffffffffffffffffffffffffffffffffffffff168152505082600090816200007c9190620005cf565b5081600190816200008e9190620005cf565b5060016002600060805173ffffffffffffffffffffffffffffffffffffffff1673ffffffffffffffffffffffffffffffffffffffff16815260200190815260200160002060006101000a81548160ff021916908315150217905550505050620006b6565b6000604051905090565b600080fd5b600080fd5b600080fd5b600080fd5b6000601f19601f8301169050919050565b7f4e487b7100000000000000000000000000000000000000000000000000000000600052604160045260246000fd5b6200015b8262000110565b810181811067ffffffffffffffff821117156200017d576200017c62000121565b5b80604052505050565b600062000192620000f2565b9050620001a0828262000150565b919050565b600067ffffffffffffffff821115620001c357620001c262000121565b5b620001ce8262000110565b9050602081019050919050565b60005b83811015620001fb578082015181840152602081019050620001de565b60008484015250505050565b60006200021e6200021884620001a5565b62000186565b9050828152602081018484840111156200023d576200023c6200010b565b5b6200024a848285620001db565b509392505050565b600082601f8301126200026a576200026962000106565b5b81516200027c84826020860162000207565b91505092915050565b600073ffffffffffffffffffffffffffffffffffffffff82169050919050565b6000620002b28262000285565b9050919050565b620002c481620002a5565b8114620002d057600080fd5b50565b600081519050620002e481620002b9565b92915050565b600080600060608486031215620003065762000305620000fc565b5b600084015167ffffffffffffffff81111562000327576200032662000101565b5b620003358682870162000252565b935050602084015167ffffffffffffffff81111562000359576200035862000101565b5b620003678682870162000252565b92505060406200037a86828701620002d3565b9150509250925092565b600081519050919050565b7f4e487b7100000000000000000000000000000000000000000000000000000000600052602260045260246000fd5b60006002820490506001821680620003d757607f821691505b602082108103620003ed57620003ec6200038f565b5b50919050565b60008190508160005260206000209050919050565b60006020601f8301049050919050565b600082821b905092915050565b600060088302620004577fffffffffffffffffffffffffffffffffffffffffffffffffffffffffffffffff8262000418565b62000463868362000418565b95508019841693508086168417925050509392505050565b6000819050919050565b6000819050919050565b6000620004b0620004aa620004a4846200047b565b62000485565b6200047b565b9050919050565b6000819050919050565b620004cc836200048f565b620004e4620004db82620004b7565b84845462000425565b825550505050565b600090565b620004fb620004ec565b62000508818484620004c1565b505050565b5b81811015620005305762000524600082620004f1565b6001810190506200050e565b5050565b601f8211156200057f576200054981620003f3565b620005548462000408565b8101602085101562000564578190505b6200057c620005738562000408565b8301826200050d565b50505b505050565b600082821c905092915050565b6000620005a46000198460080262000584565b1980831691505092915050565b6000620005bf838362000591565b9150826002028217905092915050565b620005da8262000384565b67ffffffffffffffff811115620005f657620005f562000121565b5b620006028254620003be565b6200060f82828562000534565b600060209050601f83116001811462000647576000841562000632578287015190505b6200063e8582620005b1565b865550620006ae565b601f1984166200065786620003f3565b60005b8281101562000681578489015182556001820191506020850194506020810190506200065a565b86831015620006a157848901516200069d601f89168262000591565b8355505b6001600288020188555050505b505050505050565b6080516127326200070a6000396000818161064b01528181610b3c01528181610bab01528181610d2901528181610e2c015281816112b0015281816117880152818161188b0152611c5401526127326000f3fe60806040526004361061016a5760003560e01c80638da5cb5b116100d1578063adec34b71161008a578063b8972db511610064578063b8972db51461057d578063ca4ee52514610587578063d50b3465146105c4578063dc1c9ddc1461060157610171565b8063adec34b71461050b578063afd0135a14610548578063b5e323261461055257610171565b80638da5cb5b146103e15780639bb6ff531461040c578063a010fd7014610428578063a836469a14610465578063acad41a4146104a2578063ad7110d7146104e257610171565b8063583a053311610123578063583a0533146102a95780636f9170f6146102e65780637b61c320146103235780637fe8de3f1461034e578063893d20e8146103795780638d5d2d8b146103a457610171565b806312065fe01461017357806323152ac51461019e57806324749e58146101c7578063417c48c514610204578063425ffc8b146102415780634c6c81e51461026c57610171565b3661017157005b005b34801561017f57600080fd5b50610188610641565b6040516101959190611db9565b60405180910390f35b3480156101aa57600080fd5b506101c560048036038101906101c09190611e37565b610649565b005b3480156101d357600080fd5b506101ee60048036038101906101e99190611e37565b610847565b6040516101fb9190611e7f565b60405180910390f35b34801561021057600080fd5b5061022b60048036038101906102269190611e37565b610867565b6040516102389190611db9565b60405180910390f35b34801561024d57600080fd5b5061025661087f565b6040516102639190611f2a565b60405180910390f35b34801561027857600080fd5b50610293600480360381019061028e9190611e37565b61090d565b6040516102a09190611db9565b60405180910390f35b3480156102b557600080fd5b506102d060048036038101906102cb9190611e37565b610956565b6040516102dd9190611db9565b60405180910390f35b3480156102f257600080fd5b5061030d60048036038101906103089190611e37565b61096e565b60405161031a9190611e7f565b60405180910390f35b34801561032f57600080fd5b506103386109c4565b6040516103459190611f2a565b60405180910390f35b34801561035a57600080fd5b50610363610a52565b604051610370919061208a565b60405180910390f35b34801561038557600080fd5b5061038e610b38565b60405161039b91906120bb565b60405180910390f35b3480156103b057600080fd5b506103cb60048036038101906103c69190611e37565b610b60565b6040516103d89190611db9565b60405180910390f35b3480156103ed57600080fd5b506103f6610ba9565b60405161040391906120bb565b60405180910390f35b61042660048036038101906104219190612102565b610bcd565b005b34801561043457600080fd5b5061044f600480360381019061044a9190612102565b611167565b60405161045c91906120bb565b60405180910390f35b34801561047157600080fd5b5061048c60048036038101906104879190611e37565b6111a6565b6040516104999190611db9565b60405180910390f35b3480156104ae57600080fd5b506104c960048036038101906104c49190612102565b6111be565b6040516104d9949392919061213e565b60405180910390f35b3480156104ee57600080fd5b50610509600480360381019061050491906121af565b61122b565b005b34801561051757600080fd5b50610532600480360381019061052d9190611e37565b611666565b60405161053f9190611db9565b60405180910390f35b6105506116af565b005b34801561055e57600080fd5b50610567611bc4565b60405161057491906122c5565b60405180910390f35b610585611c52565b005b34801561059357600080fd5b506105ae60048036038101906105a99190611e37565b611ce2565b6040516105bb9190611db9565b60405180910390f35b3480156105d057600080fd5b506105eb60048036038101906105e69190611e37565b611d2b565b6040516105f89190611db9565b60405180910390f35b34801561060d57600080fd5b5061062860048036038101906106239190611e37565b611d43565b604051610638949392919061213e565b60405180910390f35b600047905090565b7f000000000000000000000000000000000000000000000000000000000000000073ffffffffffffffffffffffffffffffffffffffff163373ffffffffffffffffffffffffffffffffffffffff16146106d7576040517f08c379a00000000000000000000000000000000000000000000000000000000081526004016106ce90612333565b60405180910390fd5b60001515600260008373ffffffffffffffffffffffffffffffffffffffff1673ffffffffffffffffffffffffffffffffffffffff16815260200190815260200160002060009054906101000a900460ff1615151461076a576040517f08c379a00000000000000000000000000000000000000000000000000000000081526004016107619061239f565b60405180910390fd5b6000600560008373ffffffffffffffffffffffffffffffffffffffff1673ffffffffffffffffffffffffffffffffffffffff16815260200190815260200160002054116107ec576040517f08c379a00000000000000000000000000000000000000000000000000000000081526004016107e39061240b565b60405180910390fd5b6001600260008373ffffffffffffffffffffffffffffffffffffffff1673ffffffffffffffffffffffffffffffffffffffff16815260200190815260200160002060006101000a81548160ff02191690831515021790555050565b60026020528060005260406000206000915054906101000a900460ff1681565b60036020528060005260406000206000915090505481565b6000805461088c9061245a565b80601f01602080910402602001604051908101604052809291908181526020018280546108b89061245a565b80156109055780601f106108da57610100808354040283529160200191610905565b820191906000526020600020905b8154815290600101906020018083116108e857829003601f168201915b505050505081565b6000600760008373ffffffffffffffffffffffffffffffffffffffff1673ffffffffffffffffffffffffffffffffffffffff168152602001908152602001600020549050919050565b60046020528060005260406000206000915090505481565b6000600260008373ffffffffffffffffffffffffffffffffffffffff1673ffffffffffffffffffffffffffffffffffffffff16815260200190815260200160002060009054906101000a900460ff169050919050565b600180546109d19061245a565b80601f01602080910402602001604051908101604052809291908181526020018280546109fd9061245a565b8015610a4a5780601f10610a1f57610100808354040283529160200191610a4a565b820191906000526020600020905b815481529060010190602001808311610a2d57829003601f168201915b505050505081565b60606009805480602002602001604051908101604052809291908181526020016000905b82821015610b2f57838290600052602060002090600302016040518060800160405290816000820160009054906101000a900473ffffffffffffffffffffffffffffffffffffffff1673ffffffffffffffffffffffffffffffffffffffff1673ffffffffffffffffffffffffffffffffffffffff1681526020016000820160149054906101000a900460ff1660ff1660ff1681526020016001820154815260200160028201548152505081526020019060010190610a76565b50505050905090565b60007f0000000000000000000000000000000000000000000000000000000000000000905090565b6000600560008373ffffffffffffffffffffffffffffffffffffffff1673ffffffffffffffffffffffffffffffffffffffff168152602001908152602001600020549050919050565b7f000000000000000000000000000000000000000000000000000000000000000081565b60011515600260003373ffffffffffffffffffffffffffffffffffffffff1673ffffffffffffffffffffffffffffffffffffffff16815260200190815260200160002060009054906101000a900460ff16151514610c60576040517f08c379a0000000000000000000000000000000000000000000000000000000008152600401610c57906124fd565b60405180910390fd5b8080600760003373ffffffffffffffffffffffffffffffffffffffff1673ffffffffffffffffffffffffffffffffffffffff168152602001908152602001600020541115610ce3576040517f08c379a0000000000000000000000000000000000000000000000000000000008152600401610cda90612569565b60405180910390fd5b6000600360003373ffffffffffffffffffffffffffffffffffffffff1673ffffffffffffffffffffffffffffffffffffffff1681526020019081526020016000205490507f000000000000000000000000000000000000000000000000000000000000000073ffffffffffffffffffffffffffffffffffffffff163373ffffffffffffffffffffffffffffffffffffffff1603610d7e574790505b60003373ffffffffffffffffffffffffffffffffffffffff1682604051610da4906125ba565b60006040518083038185875af1925050503d8060008114610de1576040519150601f19603f3d011682016040523d82523d6000602084013e610de6565b606091505b5050905080610e2a576040517f08c379a0000000000000000000000000000000000000000000000000000000008152600401610e219061261b565b60405180910390fd5b7f000000000000000000000000000000000000000000000000000000000000000073ffffffffffffffffffffffffffffffffffffffff163373ffffffffffffffffffffffffffffffffffffffff1614611161576000600260003373ffffffffffffffffffffffffffffffffffffffff1673ffffffffffffffffffffffffffffffffffffffff16815260200190815260200160002060006101000a81548160ff0219169083151502179055506008600560003373ffffffffffffffffffffffffffffffffffffffff1673ffffffffffffffffffffffffffffffffffffffff1681526020019081526020016000205481548110610f2857610f2761263b565b5b9060005260206000200160006101000a81549073ffffffffffffffffffffffffffffffffffffffff02191690556009600560003373ffffffffffffffffffffffffffffffffffffffff1673ffffffffffffffffffffffffffffffffffffffff1681526020019081526020016000205481548110610fa857610fa761263b565b5b9060005260206000209060030201600080820160006101000a81549073ffffffffffffffffffffffffffffffffffffffff02191690556000820160146101000a81549060ff02191690556001820160009055600282016000905550506000600360003373ffffffffffffffffffffffffffffffffffffffff1673ffffffffffffffffffffffffffffffffffffffff168152602001908152602001600020819055506000600560003373ffffffffffffffffffffffffffffffffffffffff1673ffffffffffffffffffffffffffffffffffffffff16815260200190815260200160002081905550600660003373ffffffffffffffffffffffffffffffffffffffff1673ffffffffffffffffffffffffffffffffffffffff168152602001908152602001600020600080820160006101000a81549073ffffffffffffffffffffffffffffffffffffffff02191690556000820160146101000a81549060ff02191690556001820160009055600282016000905550506000600760003373ffffffffffffffffffffffffffffffffffffffff1673ffffffffffffffffffffffffffffffffffffffff168152602001908152602001600020819055505b50505050565b6008818154811061117757600080fd5b906000526020600020016000915054906101000a900473ffffffffffffffffffffffffffffffffffffffff1681565b60056020528060005260406000206000915090505481565b600981815481106111ce57600080fd5b90600052602060002090600302016000915090508060000160009054906101000a900473ffffffffffffffffffffffffffffffffffffffff16908060000160149054906101000a900460ff16908060010154908060020154905084565b836000600560008373ffffffffffffffffffffffffffffffffffffffff1673ffffffffffffffffffffffffffffffffffffffff16815260200190815260200160002054146112ae576040517f08c379a00000000000000000000000000000000000000000000000000000000081526004016112a5906126dc565b60405180910390fd5b7f000000000000000000000000000000000000000000000000000000000000000073ffffffffffffffffffffffffffffffffffffffff163373ffffffffffffffffffffffffffffffffffffffff161461133c576040517f08c379a000000000000000000000000000000000000000000000000000000000815260040161133390612333565b60405180910390fd5b600060405180608001604052808773ffffffffffffffffffffffffffffffffffffffff1681526020018660ff168152602001858152602001848152509050600981908060018154018082558091505060019003906000526020600020906003020160009091909190915060008201518160000160006101000a81548173ffffffffffffffffffffffffffffffffffffffff021916908373ffffffffffffffffffffffffffffffffffffffff16021790555060208201518160000160146101000a81548160ff021916908360ff1602179055506040820151816001015560608201518160020155505080600660008873ffffffffffffffffffffffffffffffffffffffff1673ffffffffffffffffffffffffffffffffffffffff16815260200190815260200160002060008201518160000160006101000a81548173ffffffffffffffffffffffffffffffffffffffff021916908373ffffffffffffffffffffffffffffffffffffffff16021790555060208201518160000160146101000a81548160ff021916908360ff1602179055506040820151816001015560608201518160020155905050600980549050600560008873ffffffffffffffffffffffffffffffffffffffff1673ffffffffffffffffffffffffffffffffffffffff1681526020019081526020016000208190555083600360008873ffffffffffffffffffffffffffffffffffffffff1673ffffffffffffffffffffffffffffffffffffffff168152602001908152602001600020819055506008869080600181540180825580915050600190039060005260206000200160009091909190916101000a81548173ffffffffffffffffffffffffffffffffffffffff021916908373ffffffffffffffffffffffffffffffffffffffff16021790555082600760008873ffffffffffffffffffffffffffffffffffffffff1673ffffffffffffffffffffffffffffffffffffffff168152602001908152602001600020819055508460ff16600460008873ffffffffffffffffffffffffffffffffffffffff1673ffffffffffffffffffffffffffffffffffffffff16815260200190815260200160002081905550505050505050565b6000600360008373ffffffffffffffffffffffffffffffffffffffff1673ffffffffffffffffffffffffffffffffffffffff168152602001908152602001600020549050919050565b60011515600260003373ffffffffffffffffffffffffffffffffffffffff1673ffffffffffffffffffffffffffffffffffffffff16815260200190815260200160002060009054906101000a900460ff16151514611742576040517f08c379a0000000000000000000000000000000000000000000000000000000008152600401611739906124fd565b60405180910390fd5b6000600360003373ffffffffffffffffffffffffffffffffffffffff1673ffffffffffffffffffffffffffffffffffffffff1681526020019081526020016000205490507f000000000000000000000000000000000000000000000000000000000000000073ffffffffffffffffffffffffffffffffffffffff163373ffffffffffffffffffffffffffffffffffffffff16036117dd574790505b60003373ffffffffffffffffffffffffffffffffffffffff1682604051611803906125ba565b60006040518083038185875af1925050503d8060008114611840576040519150601f19603f3d011682016040523d82523d6000602084013e611845565b606091505b5050905080611889576040517f08c379a00000000000000000000000000000000000000000000000000000000081526004016118809061261b565b60405180910390fd5b7f000000000000000000000000000000000000000000000000000000000000000073ffffffffffffffffffffffffffffffffffffffff163373ffffffffffffffffffffffffffffffffffffffff1614611bc0576000600260003373ffffffffffffffffffffffffffffffffffffffff1673ffffffffffffffffffffffffffffffffffffffff16815260200190815260200160002060006101000a81548160ff0219169083151502179055506000600360003373ffffffffffffffffffffffffffffffffffffffff1673ffffffffffffffffffffffffffffffffffffffff168152602001908152602001600020819055506000600560003373ffffffffffffffffffffffffffffffffffffffff1673ffffffffffffffffffffffffffffffffffffffff16815260200190815260200160002081905550600660003373ffffffffffffffffffffffffffffffffffffffff1673ffffffffffffffffffffffffffffffffffffffff168152602001908152602001600020600080820160006101000a81549073ffffffffffffffffffffffffffffffffffffffff02191690556000820160146101000a81549060ff02191690556001820160009055600282016000905550506000600760003373ffffffffffffffffffffffffffffffffffffffff1673ffffffffffffffffffffffffffffffffffffffff168152602001908152602001600020819055506008600560003373ffffffffffffffffffffffffffffffffffffffff1673ffffffffffffffffffffffffffffffffffffffff1681526020019081526020016000205481548110611ae357611ae261263b565b5b9060005260206000200160006101000a81549073ffffffffffffffffffffffffffffffffffffffff02191690556009600560003373ffffffffffffffffffffffffffffffffffffffff1673ffffffffffffffffffffffffffffffffffffffff1681526020019081526020016000205481548110611b6357611b6261263b565b5b9060005260206000209060030201600080820160006101000a81549073ffffffffffffffffffffffffffffffffffffffff02191690556000820160146101000a81549060ff02191690556001820160009055600282016000905550505b5050565b60606008805480602002602001604051908101604052809291908181526020018280548015611c4857602002820191906000526020600020905b8160009054906101000a900473ffffffffffffffffffffffffffffffffffffffff1673ffffffffffffffffffffffffffffffffffffffff1681526020019060010190808311611bfe575b5050505050905090565b7f000000000000000000000000000000000000000000000000000000000000000073ffffffffffffffffffffffffffffffffffffffff163373ffffffffffffffffffffffffffffffffffffffff1614611ce0576040517f08c379a0000000000000000000000000000000000000000000000000000000008152600401611cd790612333565b60405180910390fd5b565b6000600460008373ffffffffffffffffffffffffffffffffffffffff1673ffffffffffffffffffffffffffffffffffffffff168152602001908152602001600020549050919050565b60076020528060005260406000206000915090505481565b60066020528060005260406000206000915090508060000160009054906101000a900473ffffffffffffffffffffffffffffffffffffffff16908060000160149054906101000a900460ff16908060010154908060020154905084565b6000819050919050565b611db381611da0565b82525050565b6000602082019050611dce6000830184611daa565b92915050565b600080fd5b600073ffffffffffffffffffffffffffffffffffffffff82169050919050565b6000611e0482611dd9565b9050919050565b611e1481611df9565b8114611e1f57600080fd5b50565b600081359050611e3181611e0b565b92915050565b600060208284031215611e4d57611e4c611dd4565b5b6000611e5b84828501611e22565b91505092915050565b60008115159050919050565b611e7981611e64565b82525050565b6000602082019050611e946000830184611e70565b92915050565b600081519050919050565b600082825260208201905092915050565b60005b83811015611ed4578082015181840152602081019050611eb9565b60008484015250505050565b6000601f19601f8301169050919050565b6000611efc82611e9a565b611f068185611ea5565b9350611f16818560208601611eb6565b611f1f81611ee0565b840191505092915050565b60006020820190508181036000830152611f448184611ef1565b905092915050565b600081519050919050565b600082825260208201905092915050565b6000819050602082019050919050565b611f8181611df9565b82525050565b600060ff82169050919050565b611f9d81611f87565b82525050565b611fac81611da0565b82525050565b608082016000820151611fc86000850182611f78565b506020820151611fdb6020850182611f94565b506040820151611fee6040850182611fa3565b5060608201516120016060850182611fa3565b50505050565b60006120138383611fb2565b60808301905092915050565b6000602082019050919050565b600061203782611f4c565b6120418185611f57565b935061204c83611f68565b8060005b8381101561207d5781516120648882612007565b975061206f8361201f565b925050600181019050612050565b5085935050505092915050565b600060208201905081810360008301526120a4818461202c565b905092915050565b6120b581611df9565b82525050565b60006020820190506120d060008301846120ac565b92915050565b6120df81611da0565b81146120ea57600080fd5b50565b6000813590506120fc816120d6565b92915050565b60006020828403121561211857612117611dd4565b5b6000612126848285016120ed565b91505092915050565b61213881611f87565b82525050565b600060808201905061215360008301876120ac565b612160602083018661212f565b61216d6040830185611daa565b61217a6060830184611daa565b95945050505050565b61218c81611f87565b811461219757600080fd5b50565b6000813590506121a981612183565b92915050565b600080600080608085870312156121c9576121c8611dd4565b5b60006121d787828801611e22565b94505060206121e88782880161219a565b93505060406121f9878288016120ed565b925050606061220a878288016120ed565b91505092959194509250565b600081519050919050565b600082825260208201905092915050565b6000819050602082019050919050565b600061224e8383611f78565b60208301905092915050565b6000602082019050919050565b600061227282612216565b61227c8185612221565b935061228783612232565b8060005b838110156122b857815161229f8882612242565b97506122aa8361225a565b92505060018101905061228b565b5085935050505092915050565b600060208201905081810360008301526122df8184612267565b905092915050565b7f796f7520617265206e6f7420746865206f776e65720000000000000000000000600082015250565b600061231d601583611ea5565b9150612328826122e7565b602082019050919050565b6000602082019050818103600083015261234c81612310565b9050919050565b7f596f752061726520616c7265616479207768697465206c697374656400000000600082015250565b6000612389601c83611ea5565b915061239482612353565b602082019050919050565b600060208201905081810360008301526123b88161237c565b9050919050565b7f20796f75206172652070726573656e7420696e20746865206c69737400000000600082015250565b60006123f5601c83611ea5565b9150612400826123bf565b602082019050919050565b60006020820190508181036000830152612424816123e8565b9050919050565b7f4e487b7100000000000000000000000000000000000000000000000000000000600052602260045260246000fd5b6000600282049050600182168061247257607f821691505b6020821081036124855761248461242b565b5b50919050565b7f596f7520617265206e6f742077686974652d6c6973746564207374616b65206860008201527f6f6c646572000000000000000000000000000000000000000000000000000000602082015250565b60006124e7602583611ea5565b91506124f28261248b565b604082019050919050565b60006020820190508181036000830152612516816124da565b9050919050565b7f596f75722056617374696e6720506572696f64206973206e6f74206d65740000600082015250565b6000612553601e83611ea5565b915061255e8261251d565b602082019050919050565b6000602082019050818103600083015261258281612546565b9050919050565b600081905092915050565b50565b60006125a4600083612589565b91506125af82612594565b600082019050919050565b60006125c582612597565b9150819050919050565b7f756e73756363657366756c000000000000000000000000000000000000000000600082015250565b6000612605600b83611ea5565b9150612610826125cf565b602082019050919050565b60006020820190508181036000830152612634816125f8565b9050919050565b7f4e487b7100000000000000000000000000000000000000000000000000000000600052603260045260246000fd5b7f796f752061726520616c72656164792070726573656e7420696e20746865206c60008201527f6973740000000000000000000000000000000000000000000000000000000000602082015250565b60006126c6602383611ea5565b91506126d18261266a565b604082019050919050565b600060208201905081810360008301526126f5816126b9565b905091905056fea2646970667358221220d3dd523ece80d7334c50462ad7871f05d4117e30a390d2ac1968c8bff65cb7ad64736f6c63430008180033a26469706673582212207c3f6170df5df4ceb092cdbd5f6c01db54f28c4577c865311b3597aede01935b64736f6c63430008180033",
  "linkReferences": {},
  "deployedLinkReferences": {}
}