{
  "_format": "hh-sol-artifact-1",
  "contractName": "SimpleStorage",
  "sourceName": "contracts/SimpleStorage.sol",
  "abi": [
    {
      "inputs": [
        {
          "internalType": "string",
          "name": "_peopleName",
          "type": "string"
        },
        {
          "internalType": "uint256",
          "name": "_age",
          "type": "uint256"
        },
        {
          "internalType": "bool",
          "name": "_isMarried",
          "type": "bool"
        }
      ],
      "name": "addData",
      "outputs": [],
      "stateMutability": "nonpayable",
      "type": "function"
    },
    {
      "inputs": [],
      "name": "age",
      "outputs": [
        {
          "internalType": "uint256",
          "name": "",
          "type": "uint256"
        }
      ],
      "stateMutability": "view",
      "type": "function"
    },
    {
      "inputs": [],
      "name": "data",
      "outputs": [
        {
          "internalType": "int256",
          "name": "",
          "type": "int256"
        }
      ],
      "stateMutability": "view",
      "type": "function"
    },
    {
      "inputs": [],
      "name": "deployedContractAddress",
      "outputs": [
        {
          "internalType": "address",
          "name": "",
          "type": "address"
        }
      ],
      "stateMutability": "view",
      "type": "function"
    },
    {
      "inputs": [
        {
          "internalType": "string",
          "name": "_userData",
          "type": "string"
        }
      ],
      "name": "displayAllData",
      "outputs": [
        {
          "internalType": "uint256",
          "name": "",
          "type": "uint256"
        },
        {
          "components": [
            {
              "internalType": "string",
              "name": "name",
              "type": "string"
            },
            {
              "internalType": "uint256",
              "name": "age",
              "type": "uint256"
            },
            {
              "internalType": "bool",
              "name": "married",
              "type": "bool"
            }
          ],
          "internalType": "struct SimpleStorage.People",
          "name": "",
          "type": "tuple"
        },
        {
          "internalType": "string",
          "name": "",
          "type": "string"
        },
        {
          "internalType": "uint256",
          "name": "",
          "type": "uint256"
        }
      ],
      "stateMutability": "view",
      "type": "function"
    },
    {
      "inputs": [],
      "name": "getAddress",
      "outputs": [
        {
          "internalType": "address",
          "name": "",
          "type": "address"
        }
      ],
      "stateMutability": "view",
      "type": "function"
    },
    {
      "inputs": [
        {
          "internalType": "string",
          "name": "_name",
          "type": "string"
        }
      ],
      "name": "getDetails",
      "outputs": [
        {
          "internalType": "uint256",
          "name": "",
          "type": "uint256"
        }
      ],
      "stateMutability": "view",
      "type": "function"
    },
    {
      "inputs": [
        {
          "internalType": "string",
          "name": "_name",
          "type": "string"
        }
      ],
      "name": "getInfo",
      "outputs": [
        {
          "internalType": "string",
          "name": "",
          "type": "string"
        }
      ],
      "stateMutability": "pure",
      "type": "function"
    },
    {
      "inputs": [],
      "name": "getPeopleInfoLength",
      "outputs": [
        {
          "internalType": "uint256",
          "name": "",
          "type": "uint256"
        }
      ],
      "stateMutability": "view",
      "type": "function"
    },
    {
      "inputs": [
        {
          "internalType": "string",
          "name": "",
          "type": "string"
        }
      ],
      "name": "peopleData",
      "outputs": [
        {
          "internalType": "uint256",
          "name": "",
          "type": "uint256"
        }
      ],
      "stateMutability": "view",
      "type": "function"
    },
    {
      "inputs": [
        {
          "internalType": "uint256",
          "name": "",
          "type": "uint256"
        }
      ],
      "name": "peopleInfo",
      "outputs": [
        {
          "internalType": "string",
          "name": "name",
          "type": "string"
        },
        {
          "internalType": "uint256",
          "name": "age",
          "type": "uint256"
        },
        {
          "internalType": "bool",
          "name": "married",
          "type": "bool"
        }
      ],
      "stateMutability": "view",
      "type": "function"
    },
    {
      "inputs": [],
      "name": "sName",
      "outputs": [
        {
          "internalType": "string",
          "name": "",
          "type": "string"
        }
      ],
      "stateMutability": "view",
      "type": "function"
    },
    {
      "inputs": [
        {
          "internalType": "string",
          "name": "_sName",
          "type": "string"
        },
        {
          "internalType": "uint256",
          "name": "_age",
          "type": "uint256"
        }
      ],
      "name": "setData",
      "outputs": [],
      "stateMutability": "nonpayable",
      "type": "function"
    }
  ],
  "bytecode": "0x608060405234801561001057600080fd5b50610fbd806100206000396000f3fe608060405234801561001057600080fd5b50600436106100cf5760003560e01c806387e31d9f1161008c578063b35fbb2711610066578063b35fbb2714610217578063c271790514610235578063ca24d7aa14610267578063dcfd879814610297576100cf565b806387e31d9f146101c15780638be275f3146101dd578063af22068e146101fb576100cf565b80631328fd8f146100d45780631b1647ee14610104578063262a9dff1461013757806338cc48311461015557806373d4a13a146101735780637ee005ab14610191575b600080fd5b6100ee60048036038101906100e991906107f4565b6102b5565b6040516100fb9190610856565b60405180910390f35b61011e600480360381019061011991906107f4565b6102dd565b60405161012e94939291906109b4565b60405180910390f35b61013f6103a6565b60405161014c9190610856565b60405180910390f35b61015d6103ac565b60405161016a9190610a48565b60405180910390f35b61017b6103d6565b6040516101889190610a7c565b60405180910390f35b6101ab60048036038101906101a691906107f4565b6103dc565b6040516101b89190610a97565b60405180910390f35b6101db60048036038101906101d69190610b11565b6103e6565b005b6101e561049e565b6040516101f29190610856565b60405180910390f35b61021560048036038101906102109190610b80565b6104ab565b005b61021f6104c6565b60405161022c9190610a48565b60405180910390f35b61024f600480360381019061024a9190610bdc565b6104ec565b60405161025e93929190610c18565b60405180910390f35b610281600480360381019061027c91906107f4565b6105bb565b60405161028e9190610856565b60405180910390f35b61029f6105e9565b6040516102ac9190610a97565b60405180910390f35b60006005826040516102c79190610c92565b9081526020016040518091039020549050919050565b60006102e7610677565b606060006005856040516102fb9190610c92565b90815260200160405180910390205460405180606001604052806040518060400160405280600581526020017f53756d69740000000000000000000000000000000000000000000000000000008152508152602001601e81526020016001151581525060016040518060400160405280600781526020017f6e6f2064617461000000000000000000000000000000000000000000000000008152509093509350935093509193509193565b60025481565b6000600360009054906101000a900473ffffffffffffffffffffffffffffffffffffffff16905090565b60005481565b6060819050919050565b600060405180606001604052808581526020018481526020018315158152509050600481908060018154018082558091505060019003906000526020600020906003020160009091909190915060008201518160000190816104489190610eb5565b506020820151816001015560408201518160020160006101000a81548160ff0219169083151502179055505050826005856040516104869190610c92565b90815260200160405180910390208190555050505050565b6000600480549050905090565b81600190816104ba9190610eb5565b50806002819055505050565b600360009054906101000a900473ffffffffffffffffffffffffffffffffffffffff1681565b600481815481106104fc57600080fd5b906000526020600020906003020160009150905080600001805461051f90610cd8565b80601f016020809104026020016040519081016040528092919081815260200182805461054b90610cd8565b80156105985780601f1061056d57610100808354040283529160200191610598565b820191906000526020600020905b81548152906001019060200180831161057b57829003601f168201915b5050505050908060010154908060020160009054906101000a900460ff16905083565b6005818051602081018201805184825260208301602085012081835280955050505050506000915090505481565b600180546105f690610cd8565b80601f016020809104026020016040519081016040528092919081815260200182805461062290610cd8565b801561066f5780601f106106445761010080835404028352916020019161066f565b820191906000526020600020905b81548152906001019060200180831161065257829003601f168201915b505050505081565b604051806060016040528060608152602001600081526020016000151581525090565b6000604051905090565b600080fd5b600080fd5b600080fd5b600080fd5b6000601f19601f8301169050919050565b7f4e487b7100000000000000000000000000000000000000000000000000000000600052604160045260246000fd5b610701826106b8565b810181811067ffffffffffffffff821117156107205761071f6106c9565b5b80604052505050565b600061073361069a565b905061073f82826106f8565b919050565b600067ffffffffffffffff82111561075f5761075e6106c9565b5b610768826106b8565b9050602081019050919050565b82818337600083830152505050565b600061079761079284610744565b610729565b9050828152602081018484840111156107b3576107b26106b3565b5b6107be848285610775565b509392505050565b600082601f8301126107db576107da6106ae565b5b81356107eb848260208601610784565b91505092915050565b60006020828403121561080a576108096106a4565b5b600082013567ffffffffffffffff811115610828576108276106a9565b5b610834848285016107c6565b91505092915050565b6000819050919050565b6108508161083d565b82525050565b600060208201905061086b6000830184610847565b92915050565b600081519050919050565b600082825260208201905092915050565b60005b838110156108ab578082015181840152602081019050610890565b60008484015250505050565b60006108c282610871565b6108cc818561087c565b93506108dc81856020860161088d565b6108e5816106b8565b840191505092915050565b6108f98161083d565b82525050565b60008115159050919050565b610914816108ff565b82525050565b6000606083016000830151848203600086015261093782826108b7565b915050602083015161094c60208601826108f0565b50604083015161095f604086018261090b565b508091505092915050565b600082825260208201905092915050565b600061098682610871565b610990818561096a565b93506109a081856020860161088d565b6109a9816106b8565b840191505092915050565b60006080820190506109c96000830187610847565b81810360208301526109db818661091a565b905081810360408301526109ef818561097b565b90506109fe6060830184610847565b95945050505050565b600073ffffffffffffffffffffffffffffffffffffffff82169050919050565b6000610a3282610a07565b9050919050565b610a4281610a27565b82525050565b6000602082019050610a5d6000830184610a39565b92915050565b6000819050919050565b610a7681610a63565b82525050565b6000602082019050610a916000830184610a6d565b92915050565b60006020820190508181036000830152610ab1818461097b565b905092915050565b610ac28161083d565b8114610acd57600080fd5b50565b600081359050610adf81610ab9565b92915050565b610aee816108ff565b8114610af957600080fd5b50565b600081359050610b0b81610ae5565b92915050565b600080600060608486031215610b2a57610b296106a4565b5b600084013567ffffffffffffffff811115610b4857610b476106a9565b5b610b54868287016107c6565b9350506020610b6586828701610ad0565b9250506040610b7686828701610afc565b9150509250925092565b60008060408385031215610b9757610b966106a4565b5b600083013567ffffffffffffffff811115610bb557610bb46106a9565b5b610bc1858286016107c6565b9250506020610bd285828601610ad0565b9150509250929050565b600060208284031215610bf257610bf16106a4565b5b6000610c0084828501610ad0565b91505092915050565b610c12816108ff565b82525050565b60006060820190508181036000830152610c32818661097b565b9050610c416020830185610847565b610c4e6040830184610c09565b949350505050565b600081905092915050565b6000610c6c82610871565b610c768185610c56565b9350610c8681856020860161088d565b80840191505092915050565b6000610c9e8284610c61565b915081905092915050565b7f4e487b7100000000000000000000000000000000000000000000000000000000600052602260045260246000fd5b60006002820490506001821680610cf057607f821691505b602082108103610d0357610d02610ca9565b5b50919050565b60008190508160005260206000209050919050565b60006020601f8301049050919050565b600082821b905092915050565b600060088302610d6b7fffffffffffffffffffffffffffffffffffffffffffffffffffffffffffffffff82610d2e565b610d758683610d2e565b95508019841693508086168417925050509392505050565b6000819050919050565b6000610db2610dad610da88461083d565b610d8d565b61083d565b9050919050565b6000819050919050565b610dcc83610d97565b610de0610dd882610db9565b848454610d3b565b825550505050565b600090565b610df5610de8565b610e00818484610dc3565b505050565b5b81811015610e2457610e19600082610ded565b600181019050610e06565b5050565b601f821115610e6957610e3a81610d09565b610e4384610d1e565b81016020851015610e52578190505b610e66610e5e85610d1e565b830182610e05565b50505b505050565b600082821c905092915050565b6000610e8c60001984600802610e6e565b1980831691505092915050565b6000610ea58383610e7b565b9150826002028217905092915050565b610ebe82610871565b67ffffffffffffffff811115610ed757610ed66106c9565b5b610ee18254610cd8565b610eec828285610e28565b600060209050601f831160018114610f1f5760008415610f0d578287015190505b610f178582610e99565b865550610f7f565b601f198416610f2d86610d09565b60005b82811015610f5557848901518255600182019150602085019450602081019050610f30565b86831015610f725784890151610f6e601f891682610e7b565b8355505b6001600288020188555050505b50505050505056fea264697066735822122036b54842e784b42f6d4de09366c988b445109fd4d903010ff5b812f320cc0eef64736f6c63430008180033",
  "linkReferences": {},
  "deployedLinkReferences": {}
}