{
  "_format": "hh-sol-artifact-1",
  "contractName": "simpleAdvance",
  "sourceName": "contracts/simpleAdvance.sol",
  "abi": [
    {
      "inputs": [],
      "stateMutability": "nonpayable",
      "type": "constructor"
    },
    {
      "stateMutability": "payable",
      "type": "fallback"
    },
    {
      "inputs": [],
      "name": "Paying",
      "outputs": [],
      "stateMutability": "payable",
      "type": "function"
    },
    {
      "inputs": [
        {
          "internalType": "uint256",
          "name": "_index",
          "type": "uint256"
        }
      ],
      "name": "doingWhiteList",
      "outputs": [],
      "stateMutability": "nonpayable",
      "type": "function"
    },
    {
      "inputs": [],
      "name": "getBalance",
      "outputs": [
        {
          "internalType": "uint256",
          "name": "",
          "type": "uint256"
        }
      ],
      "stateMutability": "view",
      "type": "function"
    },
    {
      "inputs": [],
      "name": "getPayed",
      "outputs": [
        {
          "internalType": "address[]",
          "name": "",
          "type": "address[]"
        }
      ],
      "stateMutability": "view",
      "type": "function"
    },
    {
      "inputs": [
        {
          "internalType": "uint256",
          "name": "",
          "type": "uint256"
        }
      ],
      "name": "payed",
      "outputs": [
        {
          "internalType": "address",
          "name": "",
          "type": "address"
        }
      ],
      "stateMutability": "view",
      "type": "function"
    },
    {
      "inputs": [],
      "name": "readNum",
      "outputs": [
        {
          "internalType": "uint256",
          "name": "",
          "type": "uint256"
        }
      ],
      "stateMutability": "view",
      "type": "function"
    },
    {
      "inputs": [],
      "name": "withDraw",
      "outputs": [],
      "stateMutability": "payable",
      "type": "function"
    },
    {
      "inputs": [
        {
          "internalType": "uint256",
          "name": "_num",
          "type": "uint256"
        }
      ],
      "name": "writeNum",
      "outputs": [],
      "stateMutability": "nonpayable",
      "type": "function"
    },
    {
      "stateMutability": "payable",
      "type": "receive"
    }
  ],
  "bytecode": "0x608060405234801561001057600080fd5b5033600160006101000a81548173ffffffffffffffffffffffffffffffffffffffff021916908373ffffffffffffffffffffffffffffffffffffffff160217905550600160036000600160009054906101000a900473ffffffffffffffffffffffffffffffffffffffff1673ffffffffffffffffffffffffffffffffffffffff1673ffffffffffffffffffffffffffffffffffffffff16815260200190815260200160002060006101000a81548160ff021916908315150217905550610ada806100db6000396000f3fe60806040526004361061007f5760003560e01c80634c6ac0581161004e5780634c6ac05814610111578063776aa7f41461014e578063a896dcc714610158578063d1c5f1e11461018357610086565b80630fdb1c101461008857806312065fe0146100925780631fbc6a3e146100bd578063272de97d146100e857610086565b3661008657005b005b6100906101ac565b005b34801561009e57600080fd5b506100a7610326565b6040516100b4919061069c565b60405180910390f35b3480156100c957600080fd5b506100d261032e565b6040516100df91906107a7565b60405180910390f35b3480156100f457600080fd5b5061010f600480360381019061010a91906107fa565b6103bc565b005b34801561011d57600080fd5b50610138600480360381019061013391906107fa565b6103c6565b6040516101459190610836565b60405180910390f35b610156610405565b005b34801561016457600080fd5b5061016d610551565b60405161017a919061069c565b60405180910390f35b34801561018f57600080fd5b506101aa60048036038101906101a591906107fa565b61055a565b005b600360003373ffffffffffffffffffffffffffffffffffffffff1673ffffffffffffffffffffffffffffffffffffffff16815260200190815260200160002060009054906101000a900460ff16610238576040517f08c379a000000000000000000000000000000000000000000000000000000000815260040161022f906108d4565b60405180910390fd5b60003373ffffffffffffffffffffffffffffffffffffffff16600460003373ffffffffffffffffffffffffffffffffffffffff1673ffffffffffffffffffffffffffffffffffffffff1681526020019081526020016000205460405161029d90610925565b60006040518083038185875af1925050503d80600081146102da576040519150601f19603f3d011682016040523d82523d6000602084013e6102df565b606091505b5050905080610323576040517f08c379a000000000000000000000000000000000000000000000000000000000815260040161031a90610986565b60405180910390fd5b50565b600047905090565b606060058054806020026020016040519081016040528092919081815260200182805480156103b257602002820191906000526020600020905b8160009054906101000a900473ffffffffffffffffffffffffffffffffffffffff1673ffffffffffffffffffffffffffffffffffffffff1681526020019060010190808311610368575b5050505050905090565b8060008190555050565b600581815481106103d657600080fd5b906000526020600020016000915054906101000a900473ffffffffffffffffffffffffffffffffffffffff1681565b6000600460003373ffffffffffffffffffffffffffffffffffffffff1673ffffffffffffffffffffffffffffffffffffffff16815260200190815260200160002054036104f85734600460003373ffffffffffffffffffffffffffffffffffffffff1673ffffffffffffffffffffffffffffffffffffffff168152602001908152602001600020819055506005339080600181540180825580915050600190039060005260206000200160009091909190916101000a81548173ffffffffffffffffffffffffffffffffffffffff021916908373ffffffffffffffffffffffffffffffffffffffff16021790555061054f565b34600460003373ffffffffffffffffffffffffffffffffffffffff1673ffffffffffffffffffffffffffffffffffffffff168152602001908152602001600020600082825461054791906109d5565b925050819055505b565b60008054905090565b600160009054906101000a900473ffffffffffffffffffffffffffffffffffffffff1673ffffffffffffffffffffffffffffffffffffffff163373ffffffffffffffffffffffffffffffffffffffff16146105ea576040517f08c379a00000000000000000000000000000000000000000000000000000000081526004016105e190610a55565b60405180910390fd5b6001600360006005848154811061060457610603610a75565b5b9060005260206000200160009054906101000a900473ffffffffffffffffffffffffffffffffffffffff1673ffffffffffffffffffffffffffffffffffffffff1673ffffffffffffffffffffffffffffffffffffffff16815260200190815260200160002060006101000a81548160ff02191690831515021790555050565b6000819050919050565b61069681610683565b82525050565b60006020820190506106b1600083018461068d565b92915050565b600081519050919050565b600082825260208201905092915050565b6000819050602082019050919050565b600073ffffffffffffffffffffffffffffffffffffffff82169050919050565b600061070e826106e3565b9050919050565b61071e81610703565b82525050565b60006107308383610715565b60208301905092915050565b6000602082019050919050565b6000610754826106b7565b61075e81856106c2565b9350610769836106d3565b8060005b8381101561079a5781516107818882610724565b975061078c8361073c565b92505060018101905061076d565b5085935050505092915050565b600060208201905081810360008301526107c18184610749565b905092915050565b600080fd5b6107d781610683565b81146107e257600080fd5b50565b6000813590506107f4816107ce565b92915050565b6000602082840312156108105761080f6107c9565b5b600061081e848285016107e5565b91505092915050565b61083081610703565b82525050565b600060208201905061084b6000830184610827565b92915050565b600082825260208201905092915050565b7f596f7520617265206e6f7420696e2077686974654c6973742063616e2774207760008201527f6974686472617700000000000000000000000000000000000000000000000000602082015250565b60006108be602783610851565b91506108c982610862565b604082019050919050565b600060208201905081810360008301526108ed816108b1565b9050919050565b600081905092915050565b50565b600061090f6000836108f4565b915061091a826108ff565b600082019050919050565b600061093082610902565b9150819050919050565b7f756e7375636365737366756c0000000000000000000000000000000000000000600082015250565b6000610970600c83610851565b915061097b8261093a565b602082019050919050565b6000602082019050818103600083015261099f81610963565b9050919050565b7f4e487b7100000000000000000000000000000000000000000000000000000000600052601160045260246000fd5b60006109e082610683565b91506109eb83610683565b9250828201905080821115610a0357610a026109a6565b5b92915050565b7f796f7520617265206e6f7420636f6e7472616374206f776e6572000000000000600082015250565b6000610a3f601a83610851565b9150610a4a82610a09565b602082019050919050565b60006020820190508181036000830152610a6e81610a32565b9050919050565b7f4e487b7100000000000000000000000000000000000000000000000000000000600052603260045260246000fdfea26469706673582212208707769f733875d093953fa41144307ebff4731ece781f91dff22f17d367491b64736f6c63430008180033",
  "linkReferences": {},
  "deployedLinkReferences": {}
}